:020000040000FA
:06000000020107021FDCF3
:03002B0002242B81
:0300330002240D97
:03004B0002244C40
:0300530002205236
:03006B000223E786
:10008300021E8BE5C754F84401F5C779012200002D
:100093000080FB120086B900030200F1E4792178A5
:1000A30008B800028004F709D8FCE479297802B87B
:1000B30000028004F709D8FCE490028178BB790838
:1000C3008002F0A3D8FCD9FA7A3B7B0A90013778F7
:1000D3000679048015E493A3AD82AE838A828B8371
:1000E300F0A3AA82AB838D828E83D8E9D9E7758288
:1000F3002E758394740312011975829175830074AC
:100103000012011975D00075812A751881751902BD
:10011300759F00020096C09FF59FE473D09F22D085
:1001230083D082C09FE493C0E0740193C0E0740263
:1001330093F59F22FF0000B4000028002800283018
:1001430075A000A000A000A00000080008E001F0D6
:10015300001000100010001000100010005000509C
:1001630000500010001000D0070000000000000F36
:100173000001000500307507001000010081FF0039
:10018300000000FF3A0658064006FF02020208027A
:100193005000A0000000E80302CF8F010000BF8FD2
:1001A30002D38F010000920A02D98F010000B3022B
:1001B30002D38F010000930A02DB8F010000C90202
:1001C30002D38F010000940A02DD8F010000CB02ED
:1001D30002D38F010000950A02DF8F080000CC02D2
:1001E30002D38F010000960A02E18F010000970AF3
:1001F300FF0100FF2002CF8F010000BC8F02D38FCD
:10020300010000FB0A02E38F000000000002EF8FF1
:1002130003000019036A0C6A0C6A0C6A0C6A0C6A04
:100223000C6A0C6A0C6A0C6A0C6A0C6A0C6A0C4045
:100233000F580F3A0FFFFF020202020202020202EC
:10024300010D000000100102CF8F010000B98F02E1
:10025300D38F0100003E0B02EB8F0100005D07020C
:10026300D38F0100003F0B02E98F010000138F02BF
:10027300D38F010000400B02E78F010000058F02BE
:10028300D38F010000410B02E58F010000B58E0200
:10029300D38F010000420B02C98F0100007F8E0241
:1002A300D38F010000430B02FD8F010000918E02EA
:1002B300D38F010000440B02C78F010000A38E02FD
:1002C300D38F010000450B02C58F010000F78E029A
:1002D300D38F010000460B02D78F010000470B01AB
:1002E300E803053F100AFF00013075030201060011
:1002F30000000000000000000000000000000000FB
:100303000000000000000000000000FFFF06008066
:100313000CE80301010101017F007F000F09507503
:100323006C7365204F78696D6574657205120700FB
:100333000700020A000201060302F0FF53696D7011
:100343006C6520424C452050657269706865726126
:100353006C781300007E130A4368617261637465ED
:100363007269737469632031000243686172616367
:10037300746572697374696320320008436861723B
:100383006163746572697374696320330010436831
:100393006172616374657269737469632034000206
:1003A300436861726163746572697374696320354C
:1003B3000002CF8F010000C28F02D38F0100005EC5
:1003C3000C02F38F0300001D0A02D58F0100005FAA
:1003D3000C02D38F010000700C02F58F0100001E88
:1003E3000A02D58F010000710C02D38F0100008235
:1003F3000C02F78F0200001F0A02D58F0100008351
:100403000C02D38F010000940C02F98F000000202E
:100413000A02EF8F030000300A02D58F0100009516
:100423000C02D38F010000A60C02FB8F01000036E3
:100433000A02D58F010000A70C1201224184031286
:100443000122588403120122898403120122C484E5
:1004530003120122EE8403120122188503120122E2
:100463002F85031201224685031201225D850312A3
:100473000122868503120122998503120122AF8589
:1004830003120122C28503120122E985031201220C
:100493000198021201220599021201223D990212CA
:1004A30001226099021201226B99021201228E9994
:1004B300021201229D9A02120122729B0212012250
:1004C300ED9B02120122759C02120122B09C0212C2
:1004D3000122E79C02120122759D021201224E9E07
:1004E30002120122AE9E02120122B99E02120122C1
:1004F300389F021201223B9F021201223E9F0212E9
:100503000122CD9F02120122D09F0212012200A0DC
:10051300021201222AA00212012218A102120122B0
:10052300CAA10212012229D40212012251D40212B9
:1005330001227FD402120122B6D40212012214D561
:10054300021201225FD502120122AAD50212012250
:10055300EAD50212012230D6021201225ED602121D
:1005630001221BD70212012225D70212012232D700
:100573000212012265D70212012231D8021201228E
:100583003DD80212012255D8021201225FD802126D
:1005930001221E90031201222C9003120122449087
:1005A300031201225C9003120122F6AF0112012211
:1005B300A2B0011201221DB1011201223EB20112A9
:1005C30001227AB20112012223B3011201220AB4D9
:1005D300011201226EB501120122C5B501120122D9
:1005E30046B60112012236B70112012283B7011266
:1005F300012209B8011201223BB8011201224FBAAC
:100603000112012291BA01120122AFBA0112012291
:1006130032BB0112012206BC01120122CEBC01121F
:100623000122AEBD0212012281BE021201222ABFA3
:10063300021201227DBF021201222DC002120122E9
:10064300B9C002120122A5C102120122D4C10212B1
:100653000122E7C2021201222FC30212012204C4A3
:100663000212012240C4021201225CC402120122BE
:10067300E19203120122B7ED02120122CDED021223
:100683000122F3ED021201220FEF0212012219EFF0
:10069300021201224EF00212012246F1021201223D
:1006A3003FCA021201226FCB02120122A2CB021215
:1006B3000122ECCB02120122B3CD0212012207A0C8
:1006C3000112012271A001120122D0A10112012203
:1006D300E0A1011201220DA20112012264A2011262
:1006E30001220DA30112012214A401120122DEA48E
:1006F300011201223EA60112012281A6011201224A
:1007030026A70112012273A70112012299A7011240
:100713000122A7A901120122ACA901120122B1AB46
:1007230001120122FEAB0112012271AC011201225E
:10073300A4AC0112012246AD01120122EFAD011258
:10074300012227AE011201222AAE0112012272AE4A
:1007530001120122B2AE0112012209AF01120122DC
:10076300ACFA02120122C4FA021201220CFB021299
:10077300012222FB0212012269FB021201227DFCEB
:10078300021201220AFD0212012255FD0212012268
:10079300682400120122742400120122AF240012E3
:1007A3000122F42400120122B425001201223A2668
:1007B300001201229F2600120122CB2600120122E1
:1007C300042700120122422900120122262B0012C3
:1007D30001220C2D001201224F2E001201229D3006
:1007E30000120122AF3100120122FA32001201225B
:1007F3000A3400120122273400120122623400124B
:100803000122843400120122E73400120122A839A4
:10081300001201223D3A001201228E3A00120122F7
:10082300B53A00120122073B00120122253B0012B8
:1008330001227F3B00120122683C00120122DE3DAF
:1008430000120122623E00120122E6D802120122A6
:10085300F0D80212012233D9021201224ED9021218
:100863000122DED90212012206DA0212012243DA40
:10087300021201227ADA02120122A3DA02120122FF
:1008830018DB021201222DDB0212012242DB0212CB
:10089300012273DB0212012287DB02120122ACDB8D
:1008A30002120122E6DB0212012212DC02120122F1
:1008B3004ADC02120122C9DC0212012212DD0212F9
:1008C30001223CDD0212012267DD02120122FA8BB2
:1008D300031201220080021201222E800212012241
:1008E3007C81021201225C82021201227B820212AB
:1008F3000122F882021201223B8302120122918417
:1009030002120122528502120122D9870212012208
:100913007A88021201227089021201226D8A021260
:100923000122C78B02120122528C021201229F8ADA
:1009330003120122088B031201225C8B0312012292
:10094300838B03120122B48B031201228FDD021267
:100953000122FCDD0212012243DE021201225BDFCF
:100963000212012257E0021201223AE1021201228D
:100973009EF601120122E0F601120122B2F70112E2
:1009830001228BF80112012285F90112012267FA73
:1009930001120122D0FA0112012286FB0112012267
:1009A300FAFB0112012266FC011201228FFC0112E3
:1009B300012209FD01120122A2FD0112012207FEFB
:1009C300011201221CFE0112012262FE0112012208
:1009D3007BFE01120122E0FE01120122E3FE01125D
:1009E3000122B3F702120122DBF70212012219F8E6
:1009F30002120122D7F8021201223EF90212012249
:100A03005AF90212012282F902120122B2F90212E8
:100A13000122C1F9021201223EFA0212012264FAF2
:100A2300021201220090011201229E910112012261
:100A3300B99301120122F5930112012222940112AA
:100A430001220795011201224E950112012292956E
:100A530001120122A49501120122E495011201223F
:100A63001196011201225C96011201229C96011239
:100A73000122CA96011201221C9701120122AC978E
:100A8300011201224A9A01120122609C01120122E1
:100A93009E9C011201222F9E01120122749E0112BB
:100AA3000122EB9E01120122359F01120122609F58
:100AB3000112012205AC0212012284AC02120122AE
:100AC30046B20212012255B302120122BDB4021230
:100AD300012254B502120122EC52001201223553B5
:100AE30000120122625300120122955300120122C7
:100AF300A25300120122AE5300120122C05300126E
:100B03000122A754001201220555001201223A5571
:100B1300001201227D5600120122CA560012012240
:100B2300EE56001201225B570012012219580012DF
:100B33000122D258001201223F5900120122F15919
:100B430000120122015A00120122885A00120122C6
:100B5300475B00120122745B00120122ED5B00125D
:100B630001224A5C00120122945C001201222A5DD8
:100B730000120122F55D00120122AA5E0012012279
:100B83001F5F00120122805F00120122EA5F001240
:100B93000122236000120122C56000120122D561E7
:100BA3000012012215620012012232620012012298
:100BB300516200120122986200120122BD620012EA
:100BC3000122EA6200120122646300120122A5637A
:100BD30000120122C9640012012279650012012268
:100BE300D065001201223A660012012253660012F8
:100BF30001223BA2021201228EA2021201229AA218
:100C0300021201226FA30212012296A302120122F1
:100C1300D1A3021201223DA40212012279A40212DD
:100C23000122B2A402120122CAA4021201221FA5A8
:100C33000212012238A50212012281A50212012209
:100C430094A502120122AEA502120122C4A502122A
:100C53000122F7A6021201223EA80212012240A994
:100C6300021201223AAA02120122F97F0012012282
:100C730067E90112012297E9011201225FED0112D6
:100C83000122B6EE011201227FEF01120122FFF0D1
:100C930001120122D0F1011201220DF201120122EF
:100CA30030F2011201226EF20112012277F20112D7
:100CB3000122C1F201120122CBF20112012275F3CA
:100CC300011201224EF401120122A2F401120122A7
:100CD30004F50112012257F50112012286F50112D2
:100CE3000122C3F501120122856600120122EC697B
:100CF30000120122F26900120122746F0012012214
:100D0300ED7300120122C3770012012250F1021287
:100D13000122C6F102120122DCF1021201221DF2AC
:100D23000212012257F202120122D0F20212012210
:100D33000BF3021201227EF302120122BCF3021210
:100D43000122C5F302120122D1F302120122EDF3B3
:100D53000212012218F4021201222EF402120122BD
:100D630072F40212012266CF0212012279CF02121B
:100D7300012293CF02120122BCCF02120122FFCF24
:100D8300021201223ED0021201227CD00212012261
:100D9300E1D002120122F6D00212012201D1021285
:100DA30001220ED10212012225D10212012233D1D6
:100DB300021201223ED1021201224AD10212012261
:100DC3005DD10212012268D1021201228BD10212DB
:100DD300012232D20212012242D2021201225CD239
:100DE3000212012279D20212012295D202120122A9
:100DF300BAD202120122C5D202120122DAD202129F
:100E03000122EED2021201224FD30212012255D344
:100E1300021201225BD30212012261D302120122C8
:100E230079D302120122ACD30212012258CD01124E
:100E33000122DCCD011201228BCE01120122EACF65
:100E4300011201220BD201120122F7D20112012257
:100E53002CD3011201224ED301120122FDD3011220
:100E63000122F5D5011201221ED601120122B0D6AC
:100E730001120122E2D601120122EFD60112012250
:100E830046D7011201226CD701120122D9D90112CE
:100E93000122DCDA0112012234DB01120122E7BE56
:100EA30001120122F1BF01120122D8C00112012255
:100EB300E2C00112012204C10112012210C1011278
:100EC3000122A9C201120122D8C201120122F4C3D4
:100ED300011201224DC401120122B3C501120122E4
:100EE30092C601120122EEC6011201225BC7011252
:100EF300012296C701120122D5C7011201228ECA0F
:100F030001120122A8CA0112012234CB01120122CB
:100F130042CB011201229BCB01120122A9CB011268
:100F230001221CCC0112012280CC01120122CACC65
:100F330001120122D38C02120122F58C021201222A
:100F43001B8F0212012230920212012248930212D5
:100F53000122FB9302120122DD9402120122FB857E
:100F63000312012220860312012292860312012218
:100F73001278001201221B78001201222478001239
:100F83000122FB7800120122AC7A00120122E27ADC
:100F9300001201221C7B00120122527B001201224B
:100FA3008C7B00120122C07B00120122EC7B001219
:100FB3000122357C001201226F7C00120122B87CD1
:100FC30000120122107D00120122457D0012012230
:100FD300A07D00120122DA7D001201222B7E001275
:100FE3000122617E001201229B7E00120122C97E32
:100FF30000120122EC7E00120122AB9103120122A6
:10100300D791031201223292031201223C9203125E
:1010130001224C9203120122D1C402120122DBC429
:101023000212012219C50212012262C50212012213
:101033009CC502120122F6C50212012217C6021232
:10104300012220C60212012271C6021201229AC68F
:1010530002120122A4C60212012210C702120122A7
:101063009EC702120122ECC70212012222C80212F9
:101073000122A9C802120122E9C80212012221C9D0
:101083000212012233C90212012252C902120122A1
:101093005BC90212012215CA02120122248F031214
:1010A3000122428203120122788203120122AE82BC
:1010B3000312012207840312012265930312012202
:1010C3007B9303120122859303120122CF93031210
:1010D3000122FCE10212012215E202120122B9E20D
:1010E30002120122F9E20212012212E30212012288
:1010F30046E30212012293E302120122C7E3021222
:10110300012209E40212012207FF0112012230FF2A
:101113000112012259FF011201229BFF0112012238
:10112300138D031201222E8D03120122A78D0312A8
:101133000122A2F402120122C7F402120122F3F4E3
:101143000212012256950312012263950312012212
:10115300CA9403120122C93E001201222D4100123A
:101163000122DF4200120122D14300120122564420
:1011730000120122D444001201220145001201226F
:101183002548001201229F48001201228E490012B5
:101193000122C84900120122084A00120122C24B4F
:1011A30000120122154C001201225E4C0012012292
:1011B300CC4C00120122FE4C00120122164D0012EB
:1011C30001222B4E001201223B4E001201226B4FD3
:1011D300001201228D4F00120122C34F001201227F
:1011E300685100120122A75100120122C7520012B6
:1011F3000122F59003120122069103120122819428
:1012030003120122C09403120122EAFF02120122F7
:10121300569203120122669203120122789203125C
:101223000122DE9203120122208E03120122A58ED7
:10123300031201220B8F03120122278903120122B9
:10124300508903120122BB89031201220C8A031263
:101253000122658A03120122B09503120122A0879D
:1012630003120122F587031201226388031201226C
:10127300D388031201227FFD02120122A9FD02126B
:1012830001227EFE0212012272FF021201227EB5AA
:10129300021201223BB60212012276B60212012289
:1012A3009EB60212012200B7021201224CB70212AB
:1012B3000122A5B70212012236B80212012238B95F
:1012C30002120122F5BA0212012277BB0212012295
:1012D300DCBB02120122F3BB0212012203BD021284
:1012E300012241BD0212012282DB011201220CDF25
:1012F3000112012294E001120122EBE0011201220A
:101303000AE10112012288E10112012226E30112FE
:1013130001220AE401120122F4E701120122C4E8C6
:10132300011201228C7F00120122A47F00120122EC
:101333000080031201221A8003120122418003124A
:101343000122518003120122678003120122BC8013
:1013530003120122E78003120122488103120122B2
:101363006A8103120122BC81031201220DE60212DB
:10137300012238E80212012220E902120122C0E907
:1013830002120122E9E9021201221AEA02120122DF
:101393005FEA021201227CEA021201223EEB0212F0
:1013A30001229CEB0212012266EC021201227EED65
:1013B3000212012211950312012222950312012226
:1013C30036950312012245950312012284950312D7
:1013D3000122E0FF01E066701008A3E066700A08CE
:1013E300A3E066700408A3E06622C3E7960809E752
:1013F300960809E7960809E79622C3E09608A3E052
:101403009608A3E09608A3E09622C008C3E096F5E9
:101413000808A3E096420808A3E096420808A3E060
:101423009645087001D3D00822080808EAC0E0EB0B
:10143300C0E086F0E7A4FA180986F0E7A42AFA18B0
:101443000986F0E7A42AFA180986F0E7A42AFA190C
:1014530086F0E7A4FBE5F02AFA190886F0E7A42B47
:10146300FBE5F03AFA190886F0E7A42BFBE5F03A1E
:10147300FA18180986F0E7A4C5F02BFBE43AFA1929
:1014830008E7C5F0C6A426F6E5F03BFBE43AFA18F4
:1014930086F0E7A4F6E5F00826F6E43B08F6E43A1E
:1014A30008F6D0E0FBD0E0FA226016080808C6C3AD
:1014B30013C618C613C618C613C618C613C6D5E076
:1014C300EA227009080808226016181818C6C333E0
:1014D300C608C633C608C633C608C633C6D5E0EA4F
:1014E30022E627F60809E637F60809E637F608097B
:1014F300E637F622E026F608A3E036F608A3E03640
:10150300F608A3E036F622E026F008A3E036F0085A
:10151300A3E036F008A3E036F022C3E697F6080905
:10152300E697F60809E697F60809E697F622C3E078
:1015330096F008A3E096F008A3E096F008A3E096DF
:10154300F022E056F608A3E056F608A3E056F608A4
:10155300A3E056F622E056F008A3E056F008A3E015
:1015630056F008A3E056F022E0F608A3E0F608A33D
:10157300E0F608A3E0F622E6F008A3E6F008A3E607
:10158300F008A3E6F022E0FAA3E0FBA3E0FCA3E06B
:10159300FD22EAF0A3EBF0A3ECF0A3EDF022E0F8D8
:1015A300A3E0F9A3E0FAA3E0FB22E8F0A3E9F0A3A8
:1015B300EAF0A3EBF022CAC0E0E6F0A308DAFAD01F
:1015C300E0FA22CAC0E0E0A3C582CCC582C583CDC0
:1015D300C583F0A3C582CCC582C583CDC583DAE6B6
:1015E300D0E0CA22C3E498F8E499F91216288026B9
:1015F300C3E49AFAE49BFBE920E7E9121628E4988E
:10160300F8E499F922C3E498F8E499F9121628E466
:1016130098F8E499F9C3E49AFAE49BFB22EB20E7F8
:10162300CFE920E7E0B90010BB0008E88AF084F8AE
:10163300AAF022E4FBC8FA22EB70227B10C833C85D
:10164300C933C9335007C39AC3DBF280069A5001EA
:101653002ADBEAC833F4C8C933F4C9FA2275F0089F
:10166300E4C833C8C933C933C99AC99B5004C92ACA
:10167300C93BD5F0ECFBC833F4C8E4C9FA22600DCA
:1016830008C6A2E713C618C613C6D5E0F322600C3A
:1016930008C6C313C618C613C6D5E0F422700422C5
:1016A300600D18C6C333C608C633C6D5E0F4182286
:1016B300251810AF08F518400C15198008F51840C7
:1016C300021519D2AF2200C0D0251810AF08F518A3
:1016D300500C05198008F51850020519D2AFD0D067
:1016E300222518F58210AF08F518400C151980084B
:1016F300F51840021519D2AF851983222518F582F2
:10170300E43519F583222518F8E43519F92225184B
:10171300FAE43519FB222518FCE43519FD22E4739C
:101723002518C582C0E0E51934FFC583C0E0E5187C
:10173300C3958224F810AF08858319858218800821
:10174300858319858218D2AFCEF0A3E520F0A37864
:1017530008E608F0A3DEFAEFF0A3E58124FAF8E641
:1017630008F0A3E608F0A3E608F0A30808E608F0EB
:10177300A3E608F0A315811581D0E0FED0E0F815AB
:101783008115811581E8C0E0EEC0E0222518C582ED
:10179300C0E0E51934FFC583C0E0E518C395822492
:1017A300F910AF0885831985821880088583198508
:1017B3008218D2AFCEF0A3E520F0A37808E608F0B4
:1017C300A3DEFAEFF0A3E58124FBF8E608F0A3E635
:1017D30008F0A30808E608F0A3E608F0A3158115AE
:1017E30081D0E0FED0E0F815811581E8C0E0EEC0BD
:1017F300E022851983851882E0A3FEE0A3F5207813
:1018030008E0A3F608DFFAE0A3FFE0A3C0E0E0A34B
:10181300C0E0E0A3C0E0E0A3C0E0E0A3C0E010AFFD
:10182300088582188583198008858218858319D2D3
:10183300AFD083D08202011F851983851882E0A36C
:10184300FEE0A3F5207808E0A3F608DFFAE0A3FFA3
:10185300E0A3C0E0E0A3C0E0E0A3C0E0E0A3C0E0F9
:1018630010AF0885821885831980088582188583BF
:1018730019D2AFD083D08222C0D02518C582C0E050
:10188300E51934FFC583C0E0E518C3958224F3103E
:10189300AF08858319858218800885831985821886
:1018A300D2AFC8F0A3E9F0A3EAF0A3EBF0A3790861
:1018B300E709F0A3D8FAECF0A3EDF0A3EEF0A3EF61
:1018C300F0A3D0E0F0A3D0E0F0A3D0E0F0A3E520B4
:1018D300F0A3E5F0F0A322851983851882E0C0E028
:1018E300A3E0F9A3E0FAA3E0FBA37808E0F608A3DA
:1018F300DFFAE0FCA3E0FDA3E0FEA3E0FFA3E0C06A
:10190300E0A3E0C0E0A3E0F5D0A3E0F520A3E0A3CB
:10191300F5F010AF0885831985821880088583192F
:10192300858218D2AFD082D083D0E0F8D0E0327471
:10193300048006740280027401C0E0F4041216E409
:10194300D0E01215B9227404800474028000CCC064
:10195300E0EDC0E0E518C39CCCAD1950011D10AFFC
:10196300068C188D1980068C188D19D2AF1215C6E6
:10197300D0E0FDD0E0FC22D083D082E9C0E0E49344
:10198300A3C386F0C5F095F0F908E493A386F0C5E8
:10199300F095F0700BE493A3C3994005E90480022A
:1019A300A3E475F002A42582F582E5F03583F5837F
:1019B300D0E0F9E493A3C0E0E493C0E022D083D065
:1019C30082ECC0E0EDC0E0E493A3FCE493A3FDED5F
:1019D3004C600D121A0CEC24FFFCED34FFFD80EF7C
:1019E300E493A3FCE493A3FDED4C600D121A4BECBE
:1019F30024FFFCED34FFFD80EFD0E0FDD0E0FCE4FC
:101A030093A3C0E0E493C0E022C0E0C3E49396084C
:101A13007401939618400FE4936670080874019359
:101A2300661870007019A3A3C3E493960874019316
:101A33009618A3A3400DD0E0D0E0D0E00219FCA398
:101A4300A3A3A3A3A3D0E022C0E0C0F088F0E49353
:101A53006670080874019366187000A8F0A3A37059
:101A63000BD0F0D0E0D0E0D0E00219FCA3A3D0F07B
:031A7300D0E0229E
:101A780074F512178FEAFEEBFFEE2434F8EF34000A
:101A8800F988088909EE2435121BA4F8EE243712C8
:101A98001BA4F50AEC850AF0A4FCAAF0850AF0ED6F
:101AA800A42AFDE82CF8E43DF97A257B00121628D3
:101AB800EA850882850983F074075AF87401B8002A
:101AC800028004C333D8FCFBEA131313541FF8EE47
:101AD80028F8EF3400F9E8245DF582E9121BA75BCA
:101AE8006003EA801CEE2436121BA4F5F0EA84A8F1
:101AF800F0EE28F8EF3400F9E82438F582E9121BF3
:101B0800A7F97F0402183B74F512178FEAFEEBFF62
:101B1800EE2434121BA4C0E0EE2435F582EF340025
:101B2800F583D0E0F08E828F83A3A3A3A3A3E0FA6A
:101B3800A3E0FB8E828F83A3A3A3A3A3A3A3E0FCAC
:101B4800A3E0FDECC39AF50AED9BF50BEE247FF5B7
:101B580008EF3400F509850882F583E06401702BED
:101B6800EE2480F582EF3400F58312194D121BAD77
:101B780074021216C9E960137CDC7D04EEFAEFFBEF
:101B8800120B92850882850983E4F0AC0AAD0BEE4E
:101B9800FAEFFB121A781223D3021B0AF582EF34EC
:101BA80000F583E022C082C083851882851983E00E
:101BB800F8A3E0F9C3EA9CEB9D5010C3EC98ED99AB
:101BC800401BC3EA98EB995014800EC3EA98EB992E
:101BD8004007C3EC98ED994004790180027900D060
:101BE80083D08222EAC39CFAEB9DFB2274ED121784
:101BF8008F9003A2E064086005E06407702C906190
:101C0800C8E060269003D0E0F874FF68601CE875AF
:101C1800F003A4C8AAF02AF974D228FE740339FF85
:101C28008E828F83A3A3A3E070057900021D94EE32
:101C38002468F510EF3400F511906060E08510829B
:101C4800851183F0750A45750B057508007509003F
:101C5800E5D914F50EE5D95403F50F601CEE24827E
:101C6800F50CEF3400F50D7403650F6058E50E6050
:101C780013EE2467121BA4700B793DEEFAEFFB12EA
:101C88000BB680A6900540E064016026850C82852D
:101C98000D83E06004780480027800850E08E5086A
:101CA800C398FA95E0FB120A368A088B09EA4509B7
:101CB8007006120E0E021C32850C82850D83E070B0
:101CC800048A0A8B0B78008016E5D9C0E08812E5F3
:101CD8000A2512F582E50B3400F583D0E0F008E818
:101CE800C3950E40E4850C82850D83E0602874FC62
:101CF800250EF50E780A121936AC0EA90FEEFAEF7A
:101D0800FB120C6474021216C9E9700AAA08AB091E
:101D1800121264021C817403650F6058850E0C75DD
:101D28000D00780C121936AC0AAD0BAA08AB0912D3
:101D38000C2874021216C9851082851183E0F87484
:101D480080687005750C7F8002880CE50CF50A78B0
:101D58000A12193AE50FF50A780A12193AA90EACCF
:101D680008AD099003D0E0FA7B001208CE74021285
:101D780016C980139003A2E06408600BAC0AAD0B8F
:101D8800EEFAEFFB120CFA120E1A79017F0C021808
:101D98003B74F312178F74FC1216B3EAFEEBFF893B
:101DA80008A2AFE433F509C2AFEE2463F50AEF34B5
:101DB80000F50B8010AA0AAB0B120BE0121264900C
:101DC80004E3E004F0850A82850B83E0F8A3E0F9D8
:101DD800E849602FE82402FAE93400FBEA2402F516
:101DE8000CEB3400F50D780C1219368A828B83E0DF
:101DF800FCA3E0F9EEFAEFFB120BD474021216C939
:101E0800E960B29004E3E060579004E4E0F89004DD
:101E1800E3E0C398500C7402650870449004E5E050
:101E2800603E8E828F83A3A3A3A3E08518828519C1
:101E380083121E7874021216FFE8121E789004E2CC
:101E4800E028F074021216FFAC82AD8385188285F3
:101E58001983AA82AB8379011208DA9004E3E4F0CB
:101E6800E509A2E092AF74041216C97F0602183B76
:101E7800F0A3E4F09004E3E0F822000085218785D0
:101E880022C622C0E074EF12187BA2AFE433FEC270
:101E9800AF759B00906182E0A2E05012E591A2E04C
:101EA800500C7591FE740165217003121BF4E0A2B9
:101EB800E55051E591A2E5504B7591DF9003A2E002
:101EC80064076005E0640870237401652170357942
:101ED800019003D0E0FA75F003A4CAA8F028FB74B7
:101EE800D22AFA74033BFB121D998018E0640D7026
:101EF800139003C4E004F064287002E4F07A00E070
:101F0800F9120E20906182E0A2E64003021FB2E5BA
:101F180091A2E64003021FB27591BF9003A2E0644C
:101F2800057008120D3C120D488003120D427521F0
:101F380000120DAEE99003A3F07900120DA2120A67
:101F4800FC7A017B009003A1E0F9121072907803EB
:101F5800E064427055900544E014F0704DC2AF1231
:101F68001F6A00782AD0E0F618D0E0F6E59F5407FB
:101F780070057509FF800375097FC4C0E07829E6FC
:101F8800F50808E65509F509740B7808121691D07A
:101F9800E02508F8906270E0A2E740F8E8C33390C3
:101FA8006272F0906270E0D2E0F0906181E0A2E3AA
:101FB8005009E5E9A2E3500375E9F7A3E0A2E75069
:101FC80009E591A2E7500375917FEEA2E092AF7FF9
:101FD800040218DAC0E0C0D0C082C083906183E0F8
:101FE800A2E05009E5BFA2E0500375BFFEE0A2E100
:101FF8005009E5BFA2E1500375BFFDE0A2E2500918
:10200800E5BFA2E2500375BFFBE0A2E35009E5BFBC
:10201800A2E3500375BFF7E0A2E45009E5BFA2E4CC
:10202800500375BFEFE0A2E55009E5BFA2E55003F4
:1020380075BFDFE0A2E65009E5BFA2E6500375BF11
:10204800BFD083D082D0D0D0E032C0E074F2121872
:102058007BE5A7A2E4500FE5A1A2E4500953A7EF3E
:1020680075A1EF1220A6E5A7A2E5500CE5A1A2E50F
:10207800500653A7DF75A1DFE5A7A2E15009E5A146
:10208800A2E1500375A1FDE5A7A2E2500CE5A1A2CB
:10209800E2500653A7FB75A1FB7F010218DA74F81A
:1020A80012178F7521019003A2E0640670077A0069
:1020B8007B00120D24A2AFE433FED2AF9003A8E058
:1020C800640170187A207B009003A1E0F91210F6E1
:1020D8007A207B009003A1E0F9121078906182E0E9
:1020E800D2E6F0900541E0602185C6228016900373
:1020F800A7E064017008E5C654F84405F5C653BE68
:10210800FC121E847401652160E4EEA2E092AF7FA8
:102118000102183B8E238F24858228858327851802
:1021280082851983E0CEA3E0CF852882852783EBBB
:10213800C9EAC8EDCBECCA75F010C3E833C8E93377
:10214800C9EA33CAEB33CBC3EA9EF526EB9FF525E4
:10215800B35004AB25AA26EC33CCED33CDD5F0DA59
:10216800AE23AF242274F112178F8A088B098C0AC8
:102178008D0B908FB57808121545740F1216FF78DD
:102188000C12156B908FB5780C1215457808790CE0
:102198001213ED908F5D50107808790C12151D7888
:1021A8000812140D4014800E780C790812151D7849
:1021B8000C12140D50047901800279007F0802186E
:1021C8003B74ED12178F8A088B098C0A8D0B908F40
:1021D800B5780812154574131216FF780C12156B92
:1021E800908FB5780C121545780C79081213ED40CC
:1021F800117808790C12151DAA08AB09AC0AAD0BA9
:102208008022751000751100751200751301781081
:10221800790C12151D781079081214E4AA10AB1164
:10222800AC12AD137F0C02183B908FB578081215CD
:102238006B8A828B8378081215587F0402183B74C6
:10224800F512178F8C828D83780812156B8A828B12
:1022580083780812153112229BC3E098F0A3E09905
:1022680012228D401E908F85780812156B8A828BFA
:1022780083780812150A8E828F83E02420F0A3E069
:10228800344EF080A4F08E828F83C3E09420A3E0C4
:10229800944E22EA2404F8EB3400F9E8FEE9FF8CB6
:1022A800828D83A3A3A3A3E0F8A3E0F98E828F8392
:1022B8002274F512178FE9FE9004F7E0FAA3E0FB09
:1022C800EEC333F8E433F974E728F582748E39F5F0
:1022D80083E02AF508A3E03BF5097808121936903F
:1022E8008F9512158912211C74021216C98A088B3F
:1022F800098C0A8D0B741078081214ACAA08AB0963
:102308007F0402183B74F112178F8A0C8B0D8C0E08
:102318008D0F740F1216FFE0FAA3E0FB741112166A
:10232800FFE0F508A3E0F5097808121936EA240158
:10233800F508EB3400F509E4F50AF50B780C790893
:1023480012142C908F69780812156B780C79081282
:10235800142CAA0CAB0DAC0EAD0F12211C7402127A
:1023680016C98B09EA450960047A0180027A00ECF3
:102378002AFCED3400FD74131216FFE0F8A3E0F90F
:10238800E8FEE9FFECF8EDF97A717B02121628886D
:10239800088909E4F50AF50B8E828F8378081215EF
:1023A8007AECF8EDF97A717B021216288A088B0903
:1023B800740578081216A08E828F83A3A3A3A3E5C1
:1023C80008F0A3E509F07F0802183BC082C083E942
:1023D800906000F0D083D08222C2AF02000022C0F9
:1023E800E074F212187BA2AFE433FED2AFE589A203
:1023F800E15003121252758900C2C5EEA2E092AFF5
:102408007F010218DAC0E074F212187BA2AFE4333D
:10241800FED2AFE58BA2E05003121252758B00C2B8
:10242800E880D8C0E0C0D0E8C0E0E9C0E0E5A8D2C4
:10243800AFC2C7A2E7A2E792AFD0E0F9D0E0F8D0E8
:10244800D0D0E032C0E074F212187BC2AF12132A67
:07245800D2AF7F010218DA88
:10246000FFFFFFFFFFFFFFFFC082C083E9900AFA72
:10247000F00226F774F7121723E99002E1F07C19B5
:102480007D037AFF7BFF1208209002E274FFF0A325
:10249000F0A3E4F0A3F079051207A89002E1E0F9B7
:1024A0001206CA7A3E7B081209E87F010217F5740A
:1024B000F41217238A088B09EB548060309002E1F4
:1024C000E0F912105A8A0A8B0BAE0AAF0BEE4F607E
:1024D000138E828F83E064B070031207C0EEFAEFB0
:1024E000FB121048AA08E5096480FB80047A007B8F
:1024F000000226C674F212172374FC1216B3EAFE09
:10250000EBFFEE4F603874021216FFEEF0A3EF12ED
:10251000292BECF0A3ED12292BAA82AB831206C45F
:10252000E9F508707374121216FF1234DFE50A45DC
:102530000B60658E828F831225A2EE4F70057508A1
:102540000280557A067B001210AE8A0C8B0DA80C07
:10255000A90DE8497005750813803D88828983E4D8
:102560001225ACA3A3EEF0A3EF123978E50AF0A38D
:10257000E50BF09002E71226349002E76017E0FCCA
:10258000A3E08003EAFCEBFD8C828D83122634707D
:10259000F38C828D83123404A90874041216C902C4
:1025A0003B7AA3A3A3A3E0FEA3E0FF22F0A3F0885D
:1025B0008289832274F2121723890AE975F017A41D
:1025C000FEAFF09002E6E4F09002E4122634600AD6
:1025D0001210B49002E4E4F0A3F0EEFAEFFB121054
:1025E000AE8A088B09EA4509602FEEFCEFFD790001
:1025F0001210369002E4E508F0A3E509F07B0080B4
:102600000812261EE4F0A3F00BEBC3950A40F2E596
:102610000A9002E6F0790080027913023B7AEB75AA
:10262000F017A4F8A9F09002E4E028FAA3E0398AB0
:1026300082F5832212319AEA4B2274F41217237521
:102640000800750900740C1216FF12394CFEE9FFE0
:10265000800CE5082401F508E5093400F509C3E517
:10266000089CE5099D503285080A85090B7403789A
:102670000A1216A0EA250AF8EB350BF9888289833D
:10268000A3A3A3A3A3A31234DFEE650A7003EF652F
:102690000B70BFE8FAE9FB80047A007B00802774A6
:1026A000F41217237900EAA2E0501B75084075095F
:1026B0008F78081219367C047D007AFC7B0A120799
:1026C000A274021216C97F040217F5C082C083905B
:1026D00002E71226FE601C88828983A3A3E06A7049
:1026E00003A3E06B8882898370E8A3A3A3A31231BC
:1026F0009680047A007B00D083D08202011F123CB6
:102700004DE8492274EE12172374FC1216B3EAFE48
:10271000EBFF851882851983E4F0A3F0EE24021202
:1027200033E8EE2405122919EE2404F50EEF122CDD
:10273000FEE024FE603924FC604624FE605224FE44
:10274000605E24FE700302281E24FE700302289699
:1027500024FE70030228A524FE70030228B424FC82
:1027600070030228C324FE70030228D202290F90AE
:1027700003007417F0A3E412293312044202290F54
:10278000851882851983AC82AD831207C60228DFC3
:10279000851882851983AC82AD831207CC0228DFAD
:1027A000850C08850D0974021216FFAC82AD838575
:1027B00008828509831231961206E88A0C8B0DACCB
:1027C0000CAD0DEC4D6042E4F50CF50D780C1219D2
:1027D00036750C00750D03780C121936750C0175E1
:1027E0000D03780C12193674081216FF12194D7960
:1027F0001612319012080874081216C9E9F50C7007
:102800000B12318C12045A800F750C0185088285D9
:102810000983122921123404850C080228E274026B
:102820001216FFAC82AD83850C82850D8312319622
:102830001206E88A108B11AC10AD11EC4D60438587
:102840000C82850D83A3A312194D75100075110319
:102850007810121936751001751103781012193697
:1028600074081216FF12194D7916123190120808C9
:1028700074081216C9E9F509700B12318C12046044
:10288000800F750901850C82850D83122921123470
:1028900004850908804C851882851983AC82AD8334
:1028A0001207D2803A851882851983AC82AD8312D3
:1028B00007D8802B851882851983AC82AD831207D7
:1028C000DE801C851882851983AC82AD831207E4F3
:1028D000800D851882851983AC82AD831207EAE9E1
:1028E000F508E50860298E828F83A3E06414601FD9
:1028F000850E82850F83E090030012292B123C493C
:10290000900301123404E508A312293312043CEEAB
:10291000FAEFFB1207660232F0F50CEF3400F50D0A
:1029200022123C4D85188285198322F085188285F4
:10293000198322F07C007D03850A82850B83123186
:102940009A2274EE12172374FC1216B38A0A8B0BA8
:102950008C0E8D0FEA2405F508EB3400F5097C1583
:102960007D0079007A007B03121036E5082402F519
:102970000CE50912291C851882851983858210852A
:1029800083117810121936850882850983A3A3A3C1
:10299000A3122E46121936E5082405F510E5093470
:1029A00000F5117810121936850C82850D831231CD
:1029B000A01206E274061216C98A108B11AE10AF6F
:1029C00011E50A2402F50AE50B1233EBEE4F700312
:1029D000022B08801774021216FF12319688828922
:1029E00083EAF0A3EBF0900300E004F0900300E032
:1029F000C394054003022B08E4F510F5117810127A
:102A000019367510E975110278101219367510EA29
:102A1000751102781012193674061216FF12194D2C
:102A20007910EEFCEFFD12319012080874081216AE
:102A3000C9E9705E850882850983A3A3A3A3A3A324
:102A4000A3E0F89002E9E0687048122E46121936A9
:102A50007CEA7D02E5082408FAE5093400FB12103F
:102A60003074021216C9E960298E828F83A3A3A352
:102A7000A3123196900300E0F5107402781012163C
:102A8000A074012510F58274033511F583EAF0A3D3
:102A9000EBF074021216FF858210858311781012F4
:102AA000193674021216FF12194D850C82850D839A
:102AB000123C5E1206EE74041216C98A108B11AE17
:102AC00010AF11900300E0F510751100740278103A
:102AD0001216A074002510F874033511F988828944
:102AE00083A312263470030229CCE82403F8E934C6
:102AF00000F9EE4F60030229D58882898374FFF0C4
:102B0000A3F0900300E004F0900300E0600A1231AB
:102B10008C12044E7900800B85088285098312335C
:102B2000FB790A0232F074EA12172374FE1216B30C
:102B30008C128D13EA2405F50CEB123DC81225A664
:102B4000750800750900EA2402F510EB3400F51150
:102B500085188285198385820A85830B780A121964
:102B600036850C82850D83A3A3A3A3122D08121909
:102B700036E50C2405F50AE50D1233EB780A121937
:102B800036850C82850D83123C5C1206E2740612B7
:102B900016C98A0A8B0BEA450B7003022CB9EA248A
:102BA00004F50EEB122CFE1225A68A828B83A3A3BA
:102BB000A3E0F98510828511831231961206D0E9BF
:102BC000F5096003022CB9E4F514F515781412190F
:102BD000367514E975150278141219367514EA75EC
:102BE0001502781412193674061216FF12194D794F
:102BF00013AC0AAD0B851082851183123196120831
:102C00000874081216C9E9F5096003022CB990028C
:102C1000E9E0F8E5087009E02402900301F080176C
:102C2000900301E0FCE82402FAE43400FBEA6C7053
:102C300001EB6003022CBD850882AA82122E3D940E
:102C400014122E355073850E82850F83E0C0E07418
:102C5000022A122CF5D0E0F00508850E82850F833C
:102C6000A3E0C0E085080A7402250A122CF5D0E022
:102C7000F005089002E9122D081219367CEA7D024F
:102C800085080A7402250AFA74033400FB12101E28
:102C900074021216C99002E9E02508F50874FF6E67
:102CA000700374FF6F6012EE24010EEF3400FFE535
:102CB00008C394145003022B50E5086013123081AE
:102CC0008510828511831231961204547900801484
:102CD000E509700375090A851282851383EEF0A356
:102CE000EFF0A90974021216C97F0E0217F58508C4
:102CF0000C7402250CF58274033400F58322340031
:102D0000F50F850E82F5832212398B2274EE12178D
:102D10002374FE1216B38C0E8D0FEA2405F50CEB0E
:102D200012291C750B00900300E4F0F50AEA240256
:102D3000F508EB3400F5098049900300E0FA9002B1
:102D4000E9E0F8122E3D9417122E35400D90030045
:102D5000E0F87416C3989002E9F0122E4612193664
:102D60007CEA7D0274012AFA74033400FB12101EFF
:102D700074021216C99002E9E0F8900300E028F00E
:102D8000050AE50C2416F582E50D122CF9E0F8E5AC
:102D90000AC3984003022E1E900300E0C39416500D
:102DA0007DE50AC333F8E433F9E50C28FEE50D3977
:102DB000FF851882851983AC82AD838E828F831242
:102DC00031961206E88A108B11AC10AD11EC4D70E3
:102DD00005750B018043E4F510F5117810121936D2
:102DE0007510E975110278101219367510EA75110F
:102DF00002781012193674061216FF12194D791640
:102E00008508828509831231961208087408121603
:102E1000C9E9F50B7003022D391233F780107C00DD
:102E20007D03850882850983123196120466A90BF9
:102E300074020232F2E99400C365D03322EA28F822
:102E4000E43400F9E822E0F51075110078102274DE
:102E5000EA12172374FC1216B38A0C8B0D8C128D98
:102E600013EA2405F50AEB1233EB75080075090027
:102E7000E50A2402F510E50B3400F5117402121670
:102E8000FF85820E85830F780E121936850A82859A
:102E90000B83A3A3A3A3123937121936E50A24051D
:102EA000F50EE50B3400F50F780E121936851082F9
:102EB0008511831233F11231901206E27406121654
:102EC000C98A0E8B0FAE0EAF0FE50C2402F50EE58E
:102ED0000D3400F50F80408882898374FFF0050867
:102EE000122CEE74FFF005089002E9E0F50C750D68
:102EF00000780C1219367CEA7D0285080C740225D4
:102F00000CFA74033400FB12101E74021216C990DE
:102F100002E9E02508F508EE4F60718E828F83A3E9
:102F2000A3A3E0F9850E82850F831231961206D095
:102F3000E9F509EE2404122919E97044E4F514F5C1
:102F40001578141219367514E975150278141219CA
:102F5000367514EA751502781412193674081216AB
:102F6000FF12194D7911EEFCEFFD850E82850F835E
:102F700012319612080874081216C9E9F50960277B
:102F8000850C82850D83123077123404E5087003B6
:102F900002305D123081850E82850F8312319612C8
:102FA000046C7900023072850882AA82EA9002E9F4
:102FB0007009E02404900301F08022E0F8900301FE
:102FC000E0F514E82404FCE43400FDEC6514700121
:102FD000ED70C0122E3D9412122E3550B6850C8223
:102FE000850D83E0C0E074022A122CF5D0E0F005D4
:102FF00008850C82850D83A3E0C0E0122CEED0E0A2
:1030000012309385820C85830D780C121936740466
:103010001216FF12194D851082851183123C5E1223
:1030200006EE74041216C98A0C8B0DAE0CAF0D851A
:10303000080C7402250CF874033400F9EE4F700389
:10304000022ED7851882851983E088828983123001
:1030500093A3E0C0E0122CEED0E0022EE5E509706B
:103060000375090A850A82850B83123077123404AE
:10307000A9097404022CE6123C4D85128285138343
:1030800022900301E0F5F0E50884900300F07C0055
:103090007D0322F005088518828519832274EC12BD
:1030A000172374FE1216B38A088B098C0E8D0FEA53
:1030B0002405FEEB3400FF851882851983AC82ADB0
:1030C000838E828F831231961206E88A0A8B0BEE6A
:1030D0002418122919EA450B70030231671232D9FC
:1030E00050328518828519831231961207FC8A1096
:1030F0008B11EA4511606B7912AC0AAD0B85088221
:10310000850983123196851082851183121721E972
:10311000F50A7058E4F50AF50B780A1219368E8212
:103120008F83A3A3E0F50A780A121936EE2403125E
:1031300033E8780A1219368E828F831231A0120872
:103140000E74061216C9E9F50A7021850C82850DE8
:1031500083E0701F850882850983123196120472FC
:103160008011750A0E8009750A018004E50A600362
:103170001233F7850C82850D83E0600479008002AC
:10318000A90A74021216C97F0C0217F57C007D0390
:10319000850A82850B8312319A22E0FAA3E0FB2292
:1031A000E0FCA3E0FD85088285098312319A227430
:1031B000EE12172374FE1216B38A088B098C0C8D3D
:1031C0000DEA2405FEEB3400FF750E00851882859C
:1031D0001983AC82AD838E828F831231961206E8FA
:1031E0008A0A8B0BEA450B70030232C51232D950A2
:1031F000358518828519831231961207FC8A0E8B49
:103200000FEA450F605E7912AC0AAD0B8508828526
:103210000983123196850E82850F83121721E9F5F5
:103220000E60030232C88508828509831234DFAA42
:103230000AFB1207F08A108B11A810A911E8497037
:103240001E7AFF7BFF1207F08A108B11A810A911BC
:10325000E849606C88828983E50AF0A3E50BF07584
:103260000A008007750E0E805F050A9002E6E0FAFC
:10327000E50AC39A504AE50A75F017A4FAABF0883C
:10328000828983A3A3E02AFAA3E03BFB8A828B8393
:103290001233F1EC4D70D2750A17750B00780A12D3
:1032A0001936EEFCEFFD12101E74021216C9EEFC68
:1032B000EFFD850882850983123196120478801407
:1032C000750E098003750E01123C45850C82850D33
:1032D00083123404A90E022E30E5082402F508E515
:1032E000093400F5098A828B83A3A3A3E0A2E52217
:1032F00074041216C97F0A0217F574EC1217238C96
:10330000108D11EA2405F50CEB12291C750F00EA4B
:103310002402F50AEB1233EB850A82F5831231960B
:103320001207F08A088B09EA450970030233DD753C
:103330000E008071850C82850D83E06401704F8ED4
:10334000828F83A3A312194D8E828F83A3A3A3A37D
:10335000E0F5127513007812121936EE2405F512F5
:10336000EF3400F513781212193612319012080E4C
:1033700074061216C9E9F50F6014850C82850D8359
:10338000E4F0123C458510828511831234047C17C9
:103390007D007900EEFAEFFB1210368E828F83E407
:1033A000F0A3F0050E9002E6E0F8E50EC398501E7B
:1033B000E50E75F017A4F8A9F0850882850983A3A6
:1033C000A3123DD21233F1EC4D6003023334850871
:1033D0008285098374FFF0A3F0E50F700612319027
:1033E00012047EA90F023187F50AEF3400F50B2293
:1033F000A3E0FCA3E0FD228E828F83123C4D850E5C
:1034000082850F83E8F0A3E9F022C082C083900296
:10341000E2E06A7003A3E06B70067AE27B0280044C
:103420007A007B000226F7C082C08378008C828DF0
:1034300083E06A7003A3E06B7010E875F003A4F8F2
:10344000A9F0EC28FAED39FB8015088C828D83A356
:10345000A3A3E06A7003A3E06B60DF7A007B000245
:1034600026F774F61217231207BA8A828B83E58235
:10347000458370067A007B008007A3A3A3A31231C3
:1034800096023AF674F2121723E9FE740E1216FF32
:103490001234DF74101216FF1239578C828D83E0BC
:1034A00064027036A3123C53F50CA3E0F9A80C7427
:1034B000026870037429697021750C02750D00781B
:1034C0000C1219367808121936780A121936EEF9E4
:1034D00012083274061216C980027901023B7AE0A2
:1034E000F50AA3E0F50B2274E812172374FB1216F9
:1034F000B3E9851882851983F08A168B17ECFEEDE7
:10350000FF751000741D1216FF123C49741D12162F
:10351000FF1234048E828F83A3A3A3E0A2E4502D74
:10352000741D1216FF1231961207FC8A828B83E5F6
:103530008245837003023928790AEEFCEFFDAA1652
:10354000AB17121721E9F510600302392B741F1213
:1035500016FF12395774211216FF1234DF7423122A
:1035600016FFE0F50EA3E0F50F8E828F83E0640274
:1035700060030238D6A3123C49850882850983A3DB
:10358000858212858313EE24061229198882898385
:10359000E0FAA3E0F9EA2400F514E439F51578140B
:1035A0001219C0010000280128CB3507000228901D
:1035B000360328FD350029C7370129F23702299340
:1035C000370329C73704297138D638E50E450F600F
:1035D000030238D1850C82850D8312394CFAE9FB40
:1035E0008A828B83E0850A82850B831239821219C5
:1035F000368A828B83A3E0FCA3E002385BE50E45AC
:103600000F60030238D1850A82850B837401F012A2
:10361000395F850882850983F07C007D008E828F6A
:1036200083A3A3A3A3E02401FAA3E03400FB1206C2
:10363000E8EA4B60418A828B83E02402F8850A82A3
:10364000850B83E028F0EA2404F8EB3400F9888243
:103650008983E0851282851383123994123982128C
:1036600019368A828B831233F0E5082403FAE509C0
:103670003400FB023860850A82850B83E02404F065
:103680007C047D007900AA12AB1312103602392B8C
:10369000E50E450F60030238D112395FFEA3E0FF4B
:1036A000850A82850B837404F0EE85088285098380
:1036B000F0EF851282851383F074031216FFAC823B
:1036C000AD83EEFAEFFB1206E88A0C8B0DEA450D8E
:1036D00070030237748A828B83A3A31225A274011C
:1036E0001216FF85820E85830F780E121936740527
:1036F0001216FF12194D7CFF7DFF1206EE740412A4
:1037000016C98B0FEA450F7033850C82850D831225
:103710003937121936850C82850D83A312194D7C19
:10372000027D007AD17B8F12051A74041216C9E942
:10373000700A74011216FF74FFF0A3F08E828F835B
:10374000E064027039750C02750D00780C121936A0
:103750008E828F831233F0E5082404FAE5093400E1
:10376000FB12101E74021216C9850A82850B83E0B3
:103770002402800974011216FFEEF0A3EFF0740129
:103780001216FF123948F074011216FFA3123940C5
:103790000238CBE50E450F60030238D1850C8285D7
:1037A0000D831233F1AA16AB17120826850A8285FB
:1037B0000B837402F0EA850882850983F085128202
:1037C000851383EB0238CEE50E450F60030238D136
:1037D00012395FF8A3E0F9850A82850B837402F041
:1037E000E8850882850983F0E985128285138302C2
:1037F00038CE850C82850D83123196121018EAFCA2
:103800008C82A882C3950EE4950F405FE8650E7028
:1038100002E50F70047C008022851882851983E000
:10382000FAE50E2AFAE50F3400FBC3EA98EB9400A0
:103830005003E08005E50ECCC39CFCEC850A828534
:103840000B83F08C0A750B00780A121936850C82EE
:10385000850D83E0250EFCA3E0350FFDAA08AB091A
:1038600012101E74021216C902392B751007023984
:103870002BE50E450F705A850C82850D83123C494D
:10388000850A82850B8374071225AE1239401225F2
:10389000AEA3E0851282851383F0E82402FAE934AE
:1038A00000FB8A828B8312394012396F123948A388
:1038B000123978123951F0E82405F8E93400F98812
:1038C000828983123951A3123994A3A3A3A3F08050
:1038D0005A75100B8055741D1216FF12319612077F
:1038E000BA8A828B83E5824583603D123C49880C0D
:1038F000890DE8450D6031780E121936780A1219D3
:1039000036780812193674061216FFE0F9EEFCEF4D
:10391000FDAA16AB17850C82850D8312172174063C
:103920001216C9E9F510800375100EA9107405125E
:1039300016C97F100217F5E0F50E750F00780E22FC
:10394000E08508828509832212399E22123C4DE8C7
:103950002212399EA3A322E0F508A3E0F5092285EF
:103960000C82850D83E0F8A3E0F5838882E022A332
:10397000A3F08A828B83A322F088828983A3A3A3E6
:10398000A322F08A828B8312398B22E0F50A750B11
:1039900000780A22F088828983A312399E22E0856A
:1039A0000882850983A3A32274EE12172374FE12E2
:1039B00016B38A0A8B0BECFAEDFB74141216FFE0B7
:1039C000F510A3E0F51174161216FFE0FE7418123C
:1039D00016FFE0F50EA3E0F50F851882851983AC7C
:1039E00082AD831206E88A0C8B0DEA450D6049858D
:1039F00018828519831231961207BA8A828B83E561
:103A0000824583602FA3A3123957E5084509602436
:103A1000780E1219367810121936EEF9AC0CAD0D7D
:103A2000AA0AAB0B85088285098312172174041238
:103A300016C98006790E80027901022E3074F612C2
:103A4000172374FE1216B3740C1216FF12394C852C
:103A50001882851983F074011216FFE9F0E4F50865
:103A6000F5097808121936750802780812193674A3
:103A7000041216FF85820885830978081219361208
:103A8000080E74061216C974021216C9806874F7FB
:103A9000121723EAFEEBFF89087C197D0312082622
:103AA000EA5402600BA908EEFAEFFB1206DC800272
:103AB00079010224AA74F612172374FF6A70037442
:103AC000FF6B70168C828D83123AFBE4F08C828D32
:103AD00083A3A3A3123AFBA380181207F68A088BCC
:103AE00009A808A909E849600D8882898374FF1232
:103AF00025ACA3A3E4F07F020217F574FFF0A3F056
:103B00008C828D83A3A32274F61217231207F68AE0
:103B1000828B83E58245836006A3A3E0FA80027A64
:103B2000007B0080D174F21217238A088B09ECFE07
:103B3000EDFF740E1216FFE0F50A1207F68A0C8BE1
:103B40000DA80CA90DE8497026EEFCEFFD7AFF7B6D
:103B5000FF1207F68A0C8B0DA80CA90DE84970041A
:103B60007911801688828983E508F0A3E509F08839
:103B7000828983A3A3E50AF079007F060217F57412
:103B8000EE121723EAFEEBFF8C088D09890C7414E2
:103B90001216FF123C4974161216FF123196750D5B
:103BA00000E8496003023C3D7402650C6003023C7E
:103BB0003874121216FF123C53FCA3E0F9EC2400F7
:103BC000F50EE439F50FEAF4F8EBF4F9EC58F8E502
:103BD0000F59F9E849705CE5082406F8ED3400F95E
:103BE000880A890B8882F583123C5E1208268A10A7
:103BF0008B11E50E65107004E50F65116042780EBB
:103C0000121936850A82850B83123C5E12082C74C9
:103C1000021216C9E9F50D7027780E1219368508BB
:103C200082850983A3A3123C5C1208447402121615
:103C3000C9800D750D808008750D0D8003750D0B05
:103C4000A90D0232F58E828F83123C4D22E0F8A33B
:103C5000E0F922123C4D88828983E022A3A3E0FC94
:103C6000A3E0FDEEFAEFFB2274E812172374E712CB
:103C700016B3851882851983EAF0A3EBF08C168DB4
:103C800017890E75080075090074311216FFE0F5EA
:103C900012A3E0F51374331216FFE0F514A3E0F558
:103CA0001574351216FFE0F50FE50975F003A4F859
:103CB000A9F0851882851983123DD2E0F47003A320
:103CC000E0F47003023DB5EE2402F50CEF123DC89E
:103CD000E07003023DB585160A85170B780A1219A4
:103CE00036AC14AD15AA12AB131207AE740212163D
:103CF000C98A0A8B0BEA450B7003023DB5E4F51047
:103D0000F511781012193674061216FF8582108587
:103D10008311781012193674091216FF85821085E6
:103D200083117810121936851282851383A3A3A3F9
:103D3000A312194D7914AC0AAD0B8E828F83123108
:103D40009612080874081216C9E97069850A8285F6
:103D50000B83A3A3A3A3123C4974021216FF1234CF
:103D600004850C82850D83E0A2E05018A90E740230
:103D70001216FFAC82AD838E828F831231961207AA
:103D800000E94208850C82850D83E0A2E15026E51A
:103D90000FF50A780A12193AA90E74031216FFAC2D
:103DA00082AD838E828F831231961206FA740112CD
:103DB00016C9E942080509E509C394025003023C0B
:103DC000A9A908741902392F3400F50D850C82F564
:103DD0008322E028FEA3E039FF8E828F832274F2D3
:103DE000121723EAFEEBFF890B7401650B600E745A
:103DF00002650B706A7901120A06E97062EEFAEF49
:103E0000FB1207F08A088B09EA45096047750A002A
:103E1000800B7C177D007900121036050A9002E6AF
:103E2000E0F8E50AC3985021E50A75F017A4F8A94F
:103E3000F0850882850983A3A3E028FAA3E039FB73
:103E40008A828B831226FE70C98508828509837455
:103E5000FFF0A3F07C197D03EEFAEFFB12082002BD
:103E60003B7A74F21217238A088B09ECFEEDFF747B
:103E70000E1216FF1234DF900AFAE0F4603D7A0960
:103E80007B00121042EA4B60328A828B8374B1F05D
:103E9000A3E4123971A312396FA3E508F0A3E50971
:103EA000123EBEEEF0A3EF123EBEA3A3E50AF0A3BE
:103EB000E50BF0900AFAE0F912104E023B7AF08A14
:103EC000828B83A3A3A3A3A32274F012172374FAF3
:103ED0001216B38908ECFEEDFF7509008A0A8B0BF8
:103EE000780A12197A000410F1400C3F2A3F443F2F
:103EF0005C3F7A3F923FB53FCD3FE13F0B4088406A
:103F00009940B040CB40F140F14021407401650838
:103F100060030240EC8E828F83E0F8C39403400379
:103F20000240ECE8900BE60240C8740265086003AA
:103F30000240EC8E828F83124899900BE7E8F0A341
:103F4000E90240C87401650860030240EC1241199F
:103F500040030240ECE89007660240C8740165081F
:103F600060030240EC8E828F83E0F8C39405400327
:103F70000240ECE89007670240C8740165086003DE
:103F80000240EC12411940030240ECE8900768023D
:103F900040C87410650860030240EC750A10750B88
:103FA00000780A1219367A697B0712101E74021201
:103FB00016C90241127401650860030240EC124107
:103FC0001940030240ECE89007790240C87401658B
:103FD0000860030240EC8E828F83E0900BEA02407F
:103FE000C87404650860030240EC8E828F83780CED
:103FF00012156B908F95780C12140D50030240EC43
:1040000090077B780C12157A024112E96003024096
:10401000EC120688E970051211B6805690080E80E1
:10402000637407650860030240EC750A06750B00AF
:10403000780A1219368E828F83A3AC82AD83740204
:1040400012171112102474021216C97C007D00AAE6
:1040500018AB198E828F83E0F9121162E9F50AC359
:10406000940A400302410F120688E9700CA90A1253
:1040700011BC79501212E2806E740F250AF582E4A9
:104080003408F5837401804074016508705E124144
:10409000195059E890077A802F74016508704D8E89
:1040A000828F83E0F8C3940A5042E8900BE98018AD
:1040B0007401650870368E828F83E0F874F928C326
:1040C000940A5028E8900BEBF08047740165087063
:1040D0001B90080DE0F88E828F83E090080DF0E8C9
:1040E0007030E06401702B1211AA802675091880C7
:1040F00021C3EA9427EB9400501574026508700FF1
:104100008E828F83124BBC120526E9F50980037558
:104110000902A90974060244F98E828F83E0F8C36C
:10412000940222740E1216C97F040217F574F0125D
:10413000172374B11216B38C0E8D0F908F34742028
:1041400012171974061215C674201217191211626B
:10415000E9F50B745F1216FFE0F50CE9C3940A4011
:10416000030242AB75F006E9A4F509744112171970
:104170007A0E74202509F91212DCE97009744D12C7
:1041800016FFE0FE80027E00900BE6E06402700500
:1041900075080180037508007408650C70047422AA
:1041A000800274212509FF7C1B7D00790074261292
:1041B0001711121036EEA2E0E433F50A7426121736
:1041C000197A1BEFF91212DCE9702574401216FF00
:1041D000E024F9C3940A5018780812193A74271287
:1041E0001719A90AAA0EAB0F1205C874011216C935
:1041F0007C147D007900740C121711121036740CA7
:104200001217197A1074242509F91212DCE970309A
:104210007C1079FF740C121711121096E97021743A
:104220001C1216FFAC82AD837A0474252509F9129D
:1042300012DC740C121719A90AAA0EAB0F1205B0E2
:10424000AC18AD197A0C7470250BF91212DCE970F8
:1042500049AA18AB191211927F00EF75F003A4F868
:10426000A9F0851882851983E58228F8E58312492B
:10427000C1124BB6601D88828983A3A3E0F508753F
:1042800009007808121936AA0EAB0F12081474022E
:104290001216C90FEFC3940440C0EEA2E1500C9077
:1042A0000765E0F9AA0EAB0F12081A7404650C70CA
:1042B00027900BE6E06402701F7A00900779E060B7
:1042C000010A900766E06004780480027800E84AFA
:1042D000F9AA0EAB0F1206707900744F0244F974FC
:1042E000F112172374F01216B38A0C8B0D8C088D03
:1042F000097E0AE9600C14600914603A14607502C2
:1043000043C51211A4E9FEC3940A40030243C5E564
:1043100008450970030243C5750A06750B00780A43
:10432000121936AC0CAD0DAA08AB0912101E74029E
:104330001216C90243C57F00750A06750B00780A7C
:10434000121936AC0CAD0DEF75F00EA4F8A9F0748F
:104350008728FA740739FB12103074021216C9E963
:1043600070090FEFC3940A505C80CDEFFEC3940A2E
:10437000505380427F00AC18AD197A1075F006EFEB
:10438000A42423F91212DCE9701C7C1079FFAA180E
:10439000AB19121096E9700EAC0CAD0DAA18AB1942
:1043A000120592E960090FEFC3940A501880C7EF15
:1043B000FEC3940A500FE50845096009AA08AB0935
:1043C000EEF912119EEEF974101216C97F0702174A
:1043D000F574F4121723E9FF7E1574FF6A700374F5
:1043E000FF6B7028750800EFFC7A027B00A90812A9
:1043F0001180E960027E000508E508C3940A40E7E1
:10440000EF604E7ACE7B11120A1880451209FA8AA3
:10441000088B09EA450960387C007D00EA2405FA2A
:10442000E43509FB850882850983A3A3A3A3E0F9EA
:10443000121162E9C3940A500BEFFC7A027B00125E
:1044400011807E00EF600AAA08AB091211CE80012C
:104450001EEEF902412874F21217238C088D097E92
:1044600015740E1216FFE0F50AA3E0F50B74FF6A4F
:10447000700374FF6B701D7F00AC0AAD0BAA08AB14
:1044800009EFF9121186E960027E000FEFC3940A6A
:10449000503B80E51209FA8A828B83E5824583606E
:1044A0002B7C007D00E5822405FAE43583FBA3A381
:1044B000A3A3E0F9121162E9C3940A5010AC0AAD4B
:1044C0000BAA08AB091211867E0080011EEEF97F4F
:1044D000060217F5C082C08390077FEAF0A3EBF0D5
:1044E000900765E0FC7D007A267B00120526900788
:1044F00065E0F9120790024FBC1216C97F08021737
:10450000F574F012172374EC1216B3EAFEEBFFEE0B
:10451000240CF50CE43FF50DEE2405F50EE43FF513
:104520000FEE2409F50AE43FF50BEE2403F508E449
:104530003FF5098E828F83A3A3E024FA700302471C
:10454000BD24FD70030246DB1470030245D81460DD
:104550001024FD70030246B2147003024712024891
:10456000141252BE604AE0F5838882E0F50EA3E0A3
:10457000F50FE50E450F6038850C82850D83E0F55B
:104580000C780C12193AEE240BF582E43FF583E027
:10459000F9850A82850B83124BBC0A0A0AAB09858E
:1045A0000E82850F8312172174011216C902481456
:1045B000850A82850B8312194D90077B121589128B
:1045C00005C274021216C9E9700302481479018504
:1045D0000A82850B830247888E828F83A385820A95
:1045E00085830BE06003024695850E82850F83E08C
:1045F000A2E040030246959008191252C1600302DE
:1046000046957C0E7D007900AA18AB1912103685EC
:104610000C82850D83124F87EA4B6010750C06756E
:104620000D00780C121936EA2410801B124F8112EB
:1046300009FAEA4B7003024814750C06750D0078F0
:104640000C121936EA2405FCE43BFD740212171122
:1046500012101E74021216C9850E82850F83E0A205
:10466000E25004D2F08002C2F0A2F0E433F8740CFD
:104670001216FFE048F0EEFCEFFDAA18AB1912117C
:1046800098E970117A027B00900765E0F9121072C8
:1046900079000248161252BE700302481412481BD9
:1046A0007003024814850A82850B83E0FC790102BD
:1046B00047B11252BE7003024814124F46890BE8EC
:1046C000450B70030248148E828F83A3E0FC7902AD
:1046D000124F818882850B830247B87C007D00EEF3
:1046E0002404FAE43FFB850882850983E0F912116E
:1046F00062E9F8C3940A4003024814EE240AFCE479
:104700003FFD7A0475F006E8A42425F91212D602BA
:104710004814124F8190077AE06007900BE9E0F9A6
:104720008069900BE6E070047905805F1209FA8ACF
:104730000C8B0DA80CA90DE82404F50CE439F50D3B
:104740008E828F83A3A3A3A3A3A3A3E0A2E05041DF
:10475000E8497003024814850C82850D83E0FE60F1
:1047600030850A82850B83E054107025740E121771
:1047700019E82405FAE439FBEEF9121162E9701127
:104780007903850882850983124F871205BC024888
:1047900014AC0EAD0F850C82850D83E0F9124F81AC
:1047A0001211DA1252BE606C12481B60677C0079ED
:1047B00000124F818E828F83121721805712068834
:1047C000E9705190080EE0640170151211B690085E
:1047D0000EE4F07C0AFDF97A0F7B08121036802C6B
:1047E000750A00850A08740F2508FEE43408FF8E58
:1047F000828F83E06401700BA90A1211BC8E828F34
:1048000083E4F0050AE50AC3940A40D779501212EE
:10481000E21211AA790174140244F9124F4AE8FE17
:10482000E9FFEE4F2274F412172374F21216B3EA62
:10483000FE8C0975F006E9A42420F508AC18AD1922
:104840007A0EF91212DCE9704B7C0679FFAA18ABDC
:1048500019121096E9703D740C1216FF124899E86F
:10486000F50BE5096005EE420B8004EEF4520B8572
:104870000B82AA82E86A7001E96015740C1216FFB7
:10488000EAF0A3E4F0AC18AD197A0EA9081212D61A
:10489000790180027900024123E0F8A3E0F9227453
:1048A000F212172374E61216B389098A0C8B0DECE9
:1048B000FEEDFF740C1217197A0E75F006E9A424A8
:1048C00020F91212DCE960030249847C0679FF7446
:1048D0000C121711121096E96003024984747025B6
:1048E00009F508AC18AD197A0CF91212DCE960036D
:1048F000024980AA18AB19121192E50C450D701DE2
:104900007C0C7900AA18AB19121096E970727C0C15
:104910007D007900AA18AB191210368051AC18AD81
:1049200019AA0CAB0D12118C8A0A8B0BA80AA90BC1
:10493000E8497022EE4F604CAC18AD197A007B004C
:1049400012118CEAF8EBF9EA4B603988828983E529
:104950000CF0A3E50DF01249FDFAEE6A7001EF606C
:104960001FEEF04F700888828983E4F0A3F0AA1844
:10497000AB19121192AC18AD197A0CA9081212D603
:10498000790180027900741A1216C90244CF74F7B3
:104990001217237F00EF75F003A4F8A9F0EC28F8B4
:1049A000ED1249C1E06A7003A3E06B7006E8FAE912
:1049B000FB800B0FEFC3940440DB7A007B00024CBA
:1049C000F939F9888289832274F71217237E00EE61
:1049D00075F003A4F8A9F0EA28F8EB1249C1E0F455
:1049E000FCA3E0F4FD88828983ECF0A3EDF012498A
:1049F000FDF4F00EEEC3940440D5024CF9E8240215
:104A0000F582E439F583E02274F412172374F4126A
:104A100016B3EAFEEBFF8C0A8D0B9008191252C1F7
:104A2000704FEE4F7003024B97EC450B7003024B37
:104A3000971211A4E9900BECF0C3940A4033750867
:104A4000007C0679FFE50875F00EA4FAABF07481DE
:104A50002AFA74073BFB121096E96003024AF0053C
:104A600008E508C3940A40D975090AE509900BECDA
:104A7000F0900BECE0C3940A4003024B9775F006EC
:104A8000E0A4F8900819124F87EA4B7069EEFCEF2A
:104A9000FD7A0E742028F91212D67C0C7D0079FF65
:104AA000AA18AB19121036AC18AD197A0C900BEC91
:104AB000E02470F91212D675080E750900780812F4
:104AC0001936EEFCEFFD900BECE075F00EA4F8A9A2
:104AD000F0748128FA740739FB12101E7402121642
:104AE000C9900819E50AF0A3E50BF07900024B998B
:104AF000850809024A6B124B9E2406124BB06019BE
:104B00007A1B742128F91212D6124BA72406F582BB
:104B1000E438F583E4F0A380D1124B9E240A124BB3
:104B2000B060107A1B742228F91212D6124BA724F7
:104B30000A80DB124B9E240C124BB060107A10746A
:104B40002328F91212D6124BA7240C80C1124B9EB7
:104B50002408124BB060347A10742428F91212D64B
:104B6000124BA72408F582E438F583E02410FCA357
:104B7000E03400FD7A0475F006900BECE0A42425E7
:104B8000F91212D6124BA72408808390080DE0601A
:104B9000031211E01211D47901740C02412590081E
:104BA00019E0F9A3E0C922900819E0F8A3E0C822AF
:104BB000F582E439F583124BBCEC4D22E0FCA3E016
:104BC000FD2274F412172374F21216B3EAFEEBFFFF
:104BD000E9C3940A5004EE4F700479028034AC1893
:104BE000AD197A0E75F006E9A42420F91212DCE959
:104BF000F508701C750A06750B00780A12193674D0
:104C000002121719EEFAEFFB12101E74021216C9E7
:104C1000A90802412374F4121723EAFEEBFF75087A
:104C200000750A06750B00780A121936EEFCEFFDC6
:104C3000E50875F00EA4F8A9F0748128FA74073914
:104C4000FB12103074021216C9E96004A908800B27
:104C50000508E508C3940A40C8790A02412874F798
:104C6000121723750800E50875F00EA4F8A9F07472
:104C70008128FE740739FFEEFCEFFD7A0E75F00611
:104C8000E508A42420F91212DCE960297C067D00E5
:104C900079FFEEFAEFFB1210367C067D0079FFEE0D
:104CA0002CFAE43FFB121036EE240CF582E43FF5BB
:104CB00083E4F0A3F00508E508C3940A40A890082F
:104CC0000DE060031211E01211D4802D74F7121759
:104CD000237E007F007C0679FFEF75F00EA4FAAB0F
:104CE000F074812AFA74073BFB121096E970010EEA
:104CF0000FEFC3940A40DEEEF97F010217F574F757
:104D00001217237E00EEF91211BC0EEEC3940A5066
:104D100003E960F180E374F312172374CB1216B326
:104D2000E9FF900BECE06F701B7A017B0090076548
:104D3000E0F91210787A027B00900765E0F9121012
:104D4000781211EC75F006EFA4FE74202EF50874AD
:104D5000271217197A0EA9081212DCE96003024E15
:104D60001C7C0679FF7427121711121096E9600354
:104D7000024E1C7C0E7D0079FF7427121711121051
:104D8000367C1B7D0079FF740C1217111210367CD3
:104D90000C7D0079FFAA18AB191210367427121770
:104DA000197A0EA9081212D6E9F508740C1217190F
:104DB0007A1B74212EF91212D6E9F50C740C121715
:104DC000197A1B74222EF91212D6E9F50B740C1203
:104DD00017197A1074232EF91212D6E9F509740CFA
:104DE0001217197A1074242EF91212D6E9F50A74E2
:104DF0000C1217197A0474252EF91212D6E9FEAC9A
:104E000018AD197A0C74702FF91212D6E9F8E50C66
:104E1000450B4509450A4E4842088003750800A91C
:104E20000874351216C97F050217F574F712172397
:104E3000E9900765F01211AA024CF974F4121723D5
:104E4000EAFEEBFF54807003024ED3900765E0F951
:104E500012105A8A088B09EA4509607078018A8223
:104E60008B83E02450603D14600624E1604F805243
:104E7000A3A3A3A3E0704E8A828B83A3A3A3A3A3BF
:104E8000A3A312194D8A828B83A3A3A3A3A3124BBE
:104E9000BC8A828B83A3A3124F8712116E740212F5
:104EA00016C98021A3A3A3A3E0641E701879008A09
:104EB000828B83A3A3124F87121168800812117A84
:104EC000E9F8E86007AA08AB09121048EEFAEF64A7
:104ED000808065EE540260237C007D007A007B00B8
:104EE000121198E960117A017B00900765E0F912D0
:104EF0001072EE6402803F7A028046EEA2E0503FDC
:104F0000124F57124F871211E6E9602F1252BE60FE
:104F10001F124F4688088909E8450960137C00790B
:104F200001124F57124F8785088285098312172176
:104F30001211ECEE6401FAEFFB80087A0180027A2C
:104F4000007B00024128124F4A22E0F5838882A3A9
:104F5000A3E0F8A3E0F922900819E0F8A3E0F583B4
:104F60008882A3A3A3227F020217F5C082C0839088
:104F70000765E0F98A828B83A3124F8712081A8093
:104F80003B850882850983E0FAA3E0FB22C082C04A
:104F90008374FF1216B31211B0E9C394028518820C
:104FA000851983400474028002740AF0AC18AD19AC
:104FB0007A0179051206A074011216C9D083D08235
:104FC00002011F74F412172374E81216B38A088BB7
:104FD00009E9FE8C0A8D0B7C187D007900AA18ABBC
:104FE00019121036851882851983E508F0A3E509A2
:104FF000F0900767E0C0E074021216FFD0E0F09076
:105000000768E0C0E074031216FFD0E0F0900BEBED
:10501000E0C0E074171216FFD0E0F074151216FF0E
:10502000E054FEF8A3E0F9900BEAE0A2E0E433FAE2
:10503000E84AF874151216FF12515EA2E15004D22C
:10504000F08002C2F0E854FDFAA2F0E43325E0F863
:10505000EA48F874151216FF12515EA2E35004D20A
:10506000F08002C2F0E854F7FAA2F0E433F50875D4
:105070000900740378081216A01251571216FF1275
:10508000515EA2E45004D2F08002C2F0E854EFFA7C
:10509000A2F0E433F508740478081216A0125157F0
:1050A0001216FF12515EA2E55004D2F08002C2F047
:1050B000E854DFFAA2F0E433F50874057808121614
:1050C000A01251571216FF12515EA2E25004D2F004
:1050D0008002C2F0E854FBFAA2F0E433F50874024F
:1050E00078081216A01251571216FFE8F0A3E9F043
:1050F000900768E0601D75081078081219367C6901
:105100007D0774061216FFAA82AB8312101E74026A
:105110001216C9900779E06010EE60097415121636
:10512000FFE04402F078018002780074141216FF48
:10513000E048F0900766E06004780480027800742C
:10514000141216FFE048F0AC0AAD0BAA18AB191206
:1051500005B67418024125EA4508F8741522E8F0EE
:10516000A3E9F0900BEAE02274F7121723120892D9
:10517000750800E50875F00EA4F8A9F0748128FE02
:10518000740739FF7C0679FFEEFAEFFB121096E9FF
:105190007009EEFAEFFB79001208980508E508C3DC
:1051A000940A40CF024CF974F612172374FD1216BC
:1051B000B3EAFEEBFF90081B1252C1703975081D4F
:1051C00075090878081219367508027509007808FB
:1051D0001219367508EF75098F78081219367CFF99
:1051E0007DFF7A017B001206E274061216C9900850
:1051F0001BEAF0A3EBF090081B1252C1700302529D
:10520000A8E4F508F509780812193674041217098C
:105210008808890978081219367404121709880851
:105220008909780812193690081D12194D790290D3
:10523000081B1252B612080874081216C9E9703613
:10524000851882851983E0FA74011216FFE0F8E4EC
:10525000C8F9EA28F508E439F509EA45096017783C
:105260000812193690081B124F5AA31252B6121187
:105270006E74021216C9E4F508F509780812193699
:1052800090081D12194D7CFF7DFF90081B124F875F
:105290001206EE74041216C990081BEAF0A3EBF094
:1052A00090081B1252C170047901800279007403C6
:1052B0001216C9024F66124BBCEEFAEFFB229007A2
:1052C0007F124899E84922C082C08390081912527F
:1052D000C16010900819124F87121048900819E405
:1052E000F0A3F0900BEC740AF0024FBCC082C083B4
:1052F0009061907404F0A37448F0A3E4F09061808E
:105300007440F09061BC7407F09061877469F0900C
:1053100061B67416F07900120B027902120B089034
:105320002460E493F46006E493F9120ADE7905122E
:105330000E020256E7C082C083E9540FF9906185DE
:10534000E0696012E5C654804449F5C6E59E547F85
:10535000644970F8E9F053C680E59E547F70FA0204
:1053600056E774F7121723E5A8FE53A87E120AEA3F
:10537000C2BA539AFEC289759B00C2C2120AF07566
:10538000A91175B905120AF6D2BA439A0174805E62
:1053900042A8025C7EC082C083906181E4F0A302D7
:1053A00056E475E90075910075BF0002011FC082C7
:1053B000C083906181E4F0A374C0F0A3E40256E6D8
:1053C000C082C08374F81216B39003A412661770DB
:1053D0000302549F9003A4E0544060237908851889
:1053E00082851983AA82AB83120BFE8518828519E8
:1053F00083AA82AB831208B69003A4E054BFF0E006
:1054000054806010790C7A657B05120BFE9003A422
:10541000E0547FF0E0A2E0500F7900120B02120876
:10542000BC9003A4E054FEF0E05402600F79011236
:105430000B021208BC9003A4E054FDF0E054046099
:105440000F7900120B081208C29003A4E054FBF07D
:10545000E05408600F7901120B081208C29003A4EF
:10546000E054F7F0E05410600F7902120B081208B4
:10547000C29003A4E054EFF0E05420600F790312CF
:105480000B081208C29003A4E054DFF0A3E054011B
:10549000600D120B141208C89003A5E054FEF074BE
:1054A000081216C90256E7C082C083E9600514607D
:1054B0002A804F90619A7433F0A37455F09061A0E4
:1054C000743AF090053FE064017009C2919003A620
:1054D0007467802D9003A67461802690619A743F52
:1054E000F0A3745AF09061A0747FF090053FE064DF
:1054F000017009D2919003A6747180059003A6747F
:105500006AF00256E7C082C083E9600B14600D1494
:10551000601714600C8020902464801590246580AE
:105520001090053FE064017005902466800390248C
:1055300067E493906186F00256E774EE12172374C5
:10554000F41216B3851882851983AC82AD837583F6
:105550008F7582AD74041215C690246493F46003B1
:10556000025664907808E0C39402500302564474D3
:10557000041216FFAC82AD8375838F758220740888
:105580001215C6FC7EFF7FFF8E0C7D008C8285820B
:105590000E800F74086D606D74096D6068740A6D1B
:1055A00060638D08750900740278081216A01256FF
:1055B0006E12156BA909E50AC9F8881074187808E5
:1055C0001214ACE5104508FAE9FBE50EC333F8E424
:1055D00033F974041216FFE58228F582E583391247
:1055E0005B6EC3E89AE99B4008E8C39AF8E99B80A0
:1055F00006EAC398F8EB99F9C3E89EE99F5006E8DC
:10560000FEE9FF8D0C0DEDC39413408774FF6E709F
:105610000374FF6F6024850C08740278081216A0CA
:1056200012566E12156B851882851983E582250E38
:10563000F582E58312600DE508F00CECC39404508C
:10564000030255847508017509007808121936742B
:10565000021216FFAC82AD837A197B0912122E74E6
:10566000021216C9740C1216C97F0A0217F5744883
:105670002508F58274783509F583780822C082C040
:1056800083906186E0F8902467E493687009902421
:1056900066E493906186F09061AE7468F0A3746ADA
:1056A000F090624574FBF0A304F053F4FD43FE0256
:1056B00090053F7401F09061A0E0643A70047900B5
:1056C00080027901120B020256E7C082C083900467
:1056D000F1E06401700A9004F6E06004790C800245
:1056E00079008003F0A3F0D083D08202011FC08232
:1056F000C08375E1F19004F4E0604D14600914601A
:1057000051146049147050120B269004EAE0F97AA3
:10571000EB7B04120D84908F99121589120DBA90AB
:105720008FA9121589120D909004F5E0F9120D9CC5
:105730007901120DF612580A241612600A743EF00E
:10574000A3740BF07900809F120B2C80BD120B32DA
:1057500080B8120B3880B3791280EB74F4121723DF
:1057600075D90D9004D5E0A2E0E4331313F8125874
:1057700000484401F5D9780012586D40FB78008844
:105780000874D612656D740412587740F275E1956D
:105790009004D5E0F97AD67B04120D8A900B1C7424
:1057A000B4F0A3740A12587D1258C11258B8125995
:1057B000D59004F4E064019004E8700B12581312C1
:1057C000156B908F79800912581312156B908F7595
:1057D00078081214F7908FB5780812154512580AF8
:1057E000240E12600A780812157A12580A2414122C
:1057F000600A7413F09003A27402F07F040217F59C
:105800009004EAE0C4333354C0229004E8E0F8A3E3
:10581000E0C8221264A578082274F61217231259E0
:10582000A68AD9780012586D40FB7800800612597C
:105830001E125A5BE8C39940F512599812586D40F0
:10584000FB780080081265697405125A5BE8C399F9
:1058500040F375E195900B1C74C0F0A3740A1258C4
:105860007D1258877412F09003A2025C428808747B
:10587000EB2508F5827404125BD89406221259BEF7
:1058800074BAF0A3740A221258C11258B81259D926
:105890009004E8E0F8A3E0C8240E1258B074FF1298
:1058A00062E29004E8E0F8A3E0C824141258B022A1
:1058B000F582E83400F58322F0A374D2F0A3740AD1
:1058C000221258C5221258C922F0A3746AF0A37498
:1058D0000C2274F61217231259131258004402F5C1
:1058E000D9780012586D40FB7800800612591E12BC
:1058F0005A5BE8C39940F575E195900B1C12592944
:10590000F0A312592912588A7414F09003A2740457
:10591000025C449004FAE0F9740729F5D92288085A
:1059200074FB2508F58274042274CC12593612597E
:1059300036F0A3740A22F0A3740AF0A374CC227484
:10594000F61217231259A674064AF5D97800125890
:105950006D40FB7800800612591E125A5BE8C3990D
:1059600040F512599812586D40FB78008008126576
:10597000697405125A5BE8C39940F375E195900B81
:105980001C74C6F0A3740A1259B41258877415F027
:105990009003A27403025C4490051A125916740411
:1059A0004AF5D97800221259139004EAE0C433333F
:1059B00054C0FA221259BE746AF0A3740C22125910
:1059C000C2221259CF746AF0A3740C1259CF22125A
:1059D00058C9F0A3221259D922F0900B2A746AF008
:1059E000A3740C1259C2746AF0A3740C1258C5F057
:1059F00022C082C08312580A240612600AE40256AA
:105A0000E474F71217239003D0E0F875F003A4C8EC
:105A1000AAF02AF974D228F8740339F9E82405FAAF
:105A2000E91264B8A3A3A3A3A3A3A3A3A31265B974
:105A3000A3A3A3A3A3A3A3E024FFF8A3E034FFF947
:105A40008A828B83E8F0A3E9F0025C7E7F0602176E
:105A5000F5880874452508F5827405125FE4F5D9C8
:105A60000822EAFEEBFF9061D0E0F87480C398FA58
:105A7000EE248222125A7A940422F582E93400F547
:105A800083E0F5D90AEAC32274F6121723EAFEEB83
:105A9000FF9061D0E06003025B1C75D90E75D903DD
:105AA00075D9047A008A08EE2508126572248B12D3
:105AB0005B2140F17A008A08EE2508126572248382
:105AC000125A7440F175E1957908EE248BFAEF349F
:105AD00000FB120BF27904EE2483FAEF3400FB1280
:105AE0000BF27C008C82AA82C3E49AF895E0F9EE6E
:105AF00028F8EF39F9E8248AF582E9125FE0C0E07E
:105B0000EE2A12657224AAF582E912600DD0E0F047
:105B10000CECC3940840CD125B2A80027900025C31
:105B200045125A7A94082275E195EE246FF582EFBA
